{
  "contractName": "UCCoin",
  "abi": [
    {
      "constant": true,
      "inputs": [],
      "name": "name",
      "outputs": [
        {
          "name": "",
          "type": "string"
        }
      ],
      "payable": false,
      "stateMutability": "view",
      "type": "function"
    },
    {
      "constant": false,
      "inputs": [
        {
          "name": "_spender",
          "type": "address"
        },
        {
          "name": "_value",
          "type": "uint256"
        }
      ],
      "name": "approve",
      "outputs": [
        {
          "name": "",
          "type": "bool"
        }
      ],
      "payable": false,
      "stateMutability": "nonpayable",
      "type": "function"
    },
    {
      "constant": false,
      "inputs": [
        {
          "name": "tokenAmount",
          "type": "uint256"
        }
      ],
      "name": "burnTotalSupply",
      "outputs": [
        {
          "name": "",
          "type": "uint256"
        }
      ],
      "payable": false,
      "stateMutability": "nonpayable",
      "type": "function"
    },
    {
      "constant": true,
      "inputs": [],
      "name": "totalSupply",
      "outputs": [
        {
          "name": "",
          "type": "uint256"
        }
      ],
      "payable": false,
      "stateMutability": "view",
      "type": "function"
    },
    {
      "constant": false,
      "inputs": [
        {
          "name": "tokenAmount",
          "type": "uint256"
        }
      ],
      "name": "increaseTotalSupply",
      "outputs": [
        {
          "name": "",
          "type": "uint256"
        }
      ],
      "payable": false,
      "stateMutability": "nonpayable",
      "type": "function"
    },
    {
      "constant": false,
      "inputs": [
        {
          "name": "_from",
          "type": "address"
        },
        {
          "name": "_to",
          "type": "address"
        },
        {
          "name": "_value",
          "type": "uint256"
        }
      ],
      "name": "transferFrom",
      "outputs": [
        {
          "name": "",
          "type": "bool"
        }
      ],
      "payable": false,
      "stateMutability": "nonpayable",
      "type": "function"
    },
    {
      "constant": true,
      "inputs": [],
      "name": "decimals",
      "outputs": [
        {
          "name": "",
          "type": "uint8"
        }
      ],
      "payable": false,
      "stateMutability": "view",
      "type": "function"
    },
    {
      "constant": false,
      "inputs": [
        {
          "name": "_spender",
          "type": "address"
        },
        {
          "name": "_subtractedValue",
          "type": "uint256"
        }
      ],
      "name": "decreaseApproval",
      "outputs": [
        {
          "name": "",
          "type": "bool"
        }
      ],
      "payable": false,
      "stateMutability": "nonpayable",
      "type": "function"
    },
    {
      "constant": true,
      "inputs": [
        {
          "name": "_owner",
          "type": "address"
        }
      ],
      "name": "balanceOf",
      "outputs": [
        {
          "name": "balance",
          "type": "uint256"
        }
      ],
      "payable": false,
      "stateMutability": "view",
      "type": "function"
    },
    {
      "constant": true,
      "inputs": [],
      "name": "MAX_UCCOIN_SUPPLY",
      "outputs": [
        {
          "name": "",
          "type": "uint256"
        }
      ],
      "payable": false,
      "stateMutability": "view",
      "type": "function"
    },
    {
      "constant": true,
      "inputs": [],
      "name": "owner",
      "outputs": [
        {
          "name": "",
          "type": "address"
        }
      ],
      "payable": false,
      "stateMutability": "view",
      "type": "function"
    },
    {
      "constant": true,
      "inputs": [],
      "name": "symbol",
      "outputs": [
        {
          "name": "",
          "type": "string"
        }
      ],
      "payable": false,
      "stateMutability": "view",
      "type": "function"
    },
    {
      "constant": false,
      "inputs": [
        {
          "name": "_to",
          "type": "address"
        },
        {
          "name": "_value",
          "type": "uint256"
        }
      ],
      "name": "transfer",
      "outputs": [
        {
          "name": "",
          "type": "bool"
        }
      ],
      "payable": false,
      "stateMutability": "nonpayable",
      "type": "function"
    },
    {
      "constant": false,
      "inputs": [
        {
          "name": "_spender",
          "type": "address"
        },
        {
          "name": "_addedValue",
          "type": "uint256"
        }
      ],
      "name": "increaseApproval",
      "outputs": [
        {
          "name": "",
          "type": "bool"
        }
      ],
      "payable": false,
      "stateMutability": "nonpayable",
      "type": "function"
    },
    {
      "constant": true,
      "inputs": [
        {
          "name": "_owner",
          "type": "address"
        },
        {
          "name": "_spender",
          "type": "address"
        }
      ],
      "name": "allowance",
      "outputs": [
        {
          "name": "",
          "type": "uint256"
        }
      ],
      "payable": false,
      "stateMutability": "view",
      "type": "function"
    },
    {
      "constant": false,
      "inputs": [
        {
          "name": "newOwner",
          "type": "address"
        }
      ],
      "name": "transferOwnership",
      "outputs": [],
      "payable": false,
      "stateMutability": "nonpayable",
      "type": "function"
    },
    {
      "constant": true,
      "inputs": [],
      "name": "INITIAL_TOKEN_SUPPLY",
      "outputs": [
        {
          "name": "",
          "type": "uint256"
        }
      ],
      "payable": false,
      "stateMutability": "view",
      "type": "function"
    },
    {
      "inputs": [],
      "payable": false,
      "stateMutability": "nonpayable",
      "type": "constructor"
    },
    {
      "anonymous": false,
      "inputs": [
        {
          "indexed": true,
          "name": "previousOwner",
          "type": "address"
        },
        {
          "indexed": true,
          "name": "newOwner",
          "type": "address"
        }
      ],
      "name": "OwnershipTransferred",
      "type": "event"
    },
    {
      "anonymous": false,
      "inputs": [
        {
          "indexed": true,
          "name": "owner",
          "type": "address"
        },
        {
          "indexed": true,
          "name": "spender",
          "type": "address"
        },
        {
          "indexed": false,
          "name": "value",
          "type": "uint256"
        }
      ],
      "name": "Approval",
      "type": "event"
    },
    {
      "anonymous": false,
      "inputs": [
        {
          "indexed": true,
          "name": "from",
          "type": "address"
        },
        {
          "indexed": true,
          "name": "to",
          "type": "address"
        },
        {
          "indexed": false,
          "name": "value",
          "type": "uint256"
        }
      ],
      "name": "Transfer",
      "type": "event"
    }
  ],
  "bytecode": "0x6060604052631dcd6500600455600860ff16600a0a60045402600555341561002657600080fd5b33600360006101000a81548173ffffffffffffffffffffffffffffffffffffffff021916908373ffffffffffffffffffffffffffffffffffffffff160217905550600554600081905550600054600160003373ffffffffffffffffffffffffffffffffffffffff1673ffffffffffffffffffffffffffffffffffffffff168152602001908152602001600020819055506116a9806100c56000396000f3006060604052600436106100f1576000357c0100000000000000000000000000000000000000000000000000000000900463ffffffff16806306fdde03146100f6578063095ea7b31461018457806316e242ca146101de57806318160ddd146102155780631d43cc981461023e57806323b872dd14610275578063313ce567146102ee578063661884631461031d57806370a082311461037757806375067219146103c45780638da5cb5b146103ed57806395d89b4114610442578063a9059cbb146104d0578063d73dd6231461052a578063dd62ed3e14610584578063f2fde38b146105f0578063f975f3a214610629575b600080fd5b341561010157600080fd5b610109610652565b6040518080602001828103825283818151815260200191508051906020019080838360005b8381101561014957808201518184015260208101905061012e565b50505050905090810190601f1680156101765780820380516001836020036101000a031916815260200191505b509250505060405180910390f35b341561018f57600080fd5b6101c4600480803573ffffffffffffffffffffffffffffffffffffffff1690602001909190803590602001909190505061068b565b604051808215151515815260200191505060405180910390f35b34156101e957600080fd5b6101ff600480803590602001909190505061077d565b6040518082815260200191505060405180910390f35b341561022057600080fd5b610228610866565b6040518082815260200191505060405180910390f35b341561024957600080fd5b61025f600480803590602001909190505061086c565b6040518082815260200191505060405180910390f35b341561028057600080fd5b6102d4600480803573ffffffffffffffffffffffffffffffffffffffff1690602001909190803573ffffffffffffffffffffffffffffffffffffffff16906020019091908035906020019091905050610923565b604051808215151515815260200191505060405180910390f35b34156102f957600080fd5b610301610ce2565b604051808260ff1660ff16815260200191505060405180910390f35b341561032857600080fd5b61035d600480803573ffffffffffffffffffffffffffffffffffffffff16906020019091908035906020019091905050610ce7565b604051808215151515815260200191505060405180910390f35b341561038257600080fd5b6103ae600480803573ffffffffffffffffffffffffffffffffffffffff16906020019091905050610f78565b6040518082815260200191505060405180910390f35b34156103cf57600080fd5b6103d7610fc1565b6040518082815260200191505060405180910390f35b34156103f857600080fd5b610400610fc7565b604051808273ffffffffffffffffffffffffffffffffffffffff1673ffffffffffffffffffffffffffffffffffffffff16815260200191505060405180910390f35b341561044d57600080fd5b610455610fed565b6040518080602001828103825283818151815260200191508051906020019080838360005b8381101561049557808201518184015260208101905061047a565b50505050905090810190601f1680156104c25780820380516001836020036101000a031916815260200191505b509250505060405180910390f35b34156104db57600080fd5b610510600480803573ffffffffffffffffffffffffffffffffffffffff16906020019091908035906020019091905050611026565b604051808215151515815260200191505060405180910390f35b341561053557600080fd5b61056a600480803573ffffffffffffffffffffffffffffffffffffffff1690602001909190803590602001909190505061124a565b604051808215151515815260200191505060405180910390f35b341561058f57600080fd5b6105da600480803573ffffffffffffffffffffffffffffffffffffffff1690602001909190803573ffffffffffffffffffffffffffffffffffffffff16906020019091905050611446565b6040518082815260200191505060405180910390f35b34156105fb57600080fd5b610627600480803573ffffffffffffffffffffffffffffffffffffffff169060200190919050506114cd565b005b341561063457600080fd5b61063c611625565b6040518082815260200191505060405180910390f35b6040805190810160405280600781526020017f554320436f696e0000000000000000000000000000000000000000000000000081525081565b600081600260003373ffffffffffffffffffffffffffffffffffffffff1673ffffffffffffffffffffffffffffffffffffffff16815260200190815260200160002060008573ffffffffffffffffffffffffffffffffffffffff1673ffffffffffffffffffffffffffffffffffffffff168152602001908152602001600020819055508273ffffffffffffffffffffffffffffffffffffffff163373ffffffffffffffffffffffffffffffffffffffff167f8c5be1e5ebec7d5bd14f71427d1e84f3dd0314c0f7b2291e5b200ac8c7c3b925846040518082815260200191505060405180910390a36001905092915050565b6000600360009054906101000a900473ffffffffffffffffffffffffffffffffffffffff1673ffffffffffffffffffffffffffffffffffffffff163373ffffffffffffffffffffffffffffffffffffffff161415156107db57600080fd5b6000821115156107ea57600080fd5b60006108018360005461162b90919063ffffffff16565b11151561080d57600080fd5b6108228260005461162b90919063ffffffff16565b600081905550610856610845600860ff16600a0a8461164490919063ffffffff16565b60045461162b90919063ffffffff16565b6004819055506004549050919050565b60005481565b6000600360009054906101000a900473ffffffffffffffffffffffffffffffffffffffff1673ffffffffffffffffffffffffffffffffffffffff163373ffffffffffffffffffffffffffffffffffffffff161415156108ca57600080fd5b6108df8260005461165f90919063ffffffff16565b600081905550610913610902600860ff16600a0a8461164490919063ffffffff16565b60045461165f90919063ffffffff16565b6004819055506004549050919050565b60008073ffffffffffffffffffffffffffffffffffffffff168373ffffffffffffffffffffffffffffffffffffffff161415151561096057600080fd5b600160008573ffffffffffffffffffffffffffffffffffffffff1673ffffffffffffffffffffffffffffffffffffffff1681526020019081526020016000205482111515156109ae57600080fd5b600260008573ffffffffffffffffffffffffffffffffffffffff1673ffffffffffffffffffffffffffffffffffffffff16815260200190815260200160002060003373ffffffffffffffffffffffffffffffffffffffff1673ffffffffffffffffffffffffffffffffffffffff168152602001908152602001600020548211151515610a3957600080fd5b610a8b82600160008773ffffffffffffffffffffffffffffffffffffffff1673ffffffffffffffffffffffffffffffffffffffff1681526020019081526020016000205461162b90919063ffffffff16565b600160008673ffffffffffffffffffffffffffffffffffffffff1673ffffffffffffffffffffffffffffffffffffffff16815260200190815260200160002081905550610b2082600160008673ffffffffffffffffffffffffffffffffffffffff1673ffffffffffffffffffffffffffffffffffffffff1681526020019081526020016000205461165f90919063ffffffff16565b600160008573ffffffffffffffffffffffffffffffffffffffff1673ffffffffffffffffffffffffffffffffffffffff16815260200190815260200160002081905550610bf282600260008773ffffffffffffffffffffffffffffffffffffffff1673ffffffffffffffffffffffffffffffffffffffff16815260200190815260200160002060003373ffffffffffffffffffffffffffffffffffffffff1673ffffffffffffffffffffffffffffffffffffffff1681526020019081526020016000205461162b90919063ffffffff16565b600260008673ffffffffffffffffffffffffffffffffffffffff1673ffffffffffffffffffffffffffffffffffffffff16815260200190815260200160002060003373ffffffffffffffffffffffffffffffffffffffff1673ffffffffffffffffffffffffffffffffffffffff168152602001908152602001600020819055508273ffffffffffffffffffffffffffffffffffffffff168473ffffffffffffffffffffffffffffffffffffffff167fddf252ad1be2c89b69c2b068fc378daa952ba7f163c4a11628f55a4df523b3ef846040518082815260200191505060405180910390a3600190509392505050565b600881565b600080600260003373ffffffffffffffffffffffffffffffffffffffff1673ffffffffffffffffffffffffffffffffffffffff16815260200190815260200160002060008573ffffffffffffffffffffffffffffffffffffffff1673ffffffffffffffffffffffffffffffffffffffff16815260200190815260200160002054905080831115610df8576000600260003373ffffffffffffffffffffffffffffffffffffffff1673ffffffffffffffffffffffffffffffffffffffff16815260200190815260200160002060008673ffffffffffffffffffffffffffffffffffffffff1673ffffffffffffffffffffffffffffffffffffffff16815260200190815260200160002081905550610e8c565b610e0b838261162b90919063ffffffff16565b600260003373ffffffffffffffffffffffffffffffffffffffff1673ffffffffffffffffffffffffffffffffffffffff16815260200190815260200160002060008673ffffffffffffffffffffffffffffffffffffffff1673ffffffffffffffffffffffffffffffffffffffff168152602001908152602001600020819055505b8373ffffffffffffffffffffffffffffffffffffffff163373ffffffffffffffffffffffffffffffffffffffff167f8c5be1e5ebec7d5bd14f71427d1e84f3dd0314c0f7b2291e5b200ac8c7c3b925600260003373ffffffffffffffffffffffffffffffffffffffff1673ffffffffffffffffffffffffffffffffffffffff16815260200190815260200160002060008873ffffffffffffffffffffffffffffffffffffffff1673ffffffffffffffffffffffffffffffffffffffff168152602001908152602001600020546040518082815260200191505060405180910390a3600191505092915050565b6000600160008373ffffffffffffffffffffffffffffffffffffffff1673ffffffffffffffffffffffffffffffffffffffff168152602001908152602001600020549050919050565b60045481565b600360009054906101000a900473ffffffffffffffffffffffffffffffffffffffff1681565b6040805190810160405280600381526020017f55434e000000000000000000000000000000000000000000000000000000000081525081565b60008073ffffffffffffffffffffffffffffffffffffffff168373ffffffffffffffffffffffffffffffffffffffff161415151561106357600080fd5b600160003373ffffffffffffffffffffffffffffffffffffffff1673ffffffffffffffffffffffffffffffffffffffff1681526020019081526020016000205482111515156110b157600080fd5b61110382600160003373ffffffffffffffffffffffffffffffffffffffff1673ffffffffffffffffffffffffffffffffffffffff1681526020019081526020016000205461162b90919063ffffffff16565b600160003373ffffffffffffffffffffffffffffffffffffffff1673ffffffffffffffffffffffffffffffffffffffff1681526020019081526020016000208190555061119882600160008673ffffffffffffffffffffffffffffffffffffffff1673ffffffffffffffffffffffffffffffffffffffff1681526020019081526020016000205461165f90919063ffffffff16565b600160008573ffffffffffffffffffffffffffffffffffffffff1673ffffffffffffffffffffffffffffffffffffffff168152602001908152602001600020819055508273ffffffffffffffffffffffffffffffffffffffff163373ffffffffffffffffffffffffffffffffffffffff167fddf252ad1be2c89b69c2b068fc378daa952ba7f163c4a11628f55a4df523b3ef846040518082815260200191505060405180910390a36001905092915050565b60006112db82600260003373ffffffffffffffffffffffffffffffffffffffff1673ffffffffffffffffffffffffffffffffffffffff16815260200190815260200160002060008673ffffffffffffffffffffffffffffffffffffffff1673ffffffffffffffffffffffffffffffffffffffff1681526020019081526020016000205461165f90919063ffffffff16565b600260003373ffffffffffffffffffffffffffffffffffffffff1673ffffffffffffffffffffffffffffffffffffffff16815260200190815260200160002060008573ffffffffffffffffffffffffffffffffffffffff1673ffffffffffffffffffffffffffffffffffffffff168152602001908152602001600020819055508273ffffffffffffffffffffffffffffffffffffffff163373ffffffffffffffffffffffffffffffffffffffff167f8c5be1e5ebec7d5bd14f71427d1e84f3dd0314c0f7b2291e5b200ac8c7c3b925600260003373ffffffffffffffffffffffffffffffffffffffff1673ffffffffffffffffffffffffffffffffffffffff16815260200190815260200160002060008773ffffffffffffffffffffffffffffffffffffffff1673ffffffffffffffffffffffffffffffffffffffff168152602001908152602001600020546040518082815260200191505060405180910390a36001905092915050565b6000600260008473ffffffffffffffffffffffffffffffffffffffff1673ffffffffffffffffffffffffffffffffffffffff16815260200190815260200160002060008373ffffffffffffffffffffffffffffffffffffffff1673ffffffffffffffffffffffffffffffffffffffff16815260200190815260200160002054905092915050565b600360009054906101000a900473ffffffffffffffffffffffffffffffffffffffff1673ffffffffffffffffffffffffffffffffffffffff163373ffffffffffffffffffffffffffffffffffffffff1614151561152957600080fd5b600073ffffffffffffffffffffffffffffffffffffffff168173ffffffffffffffffffffffffffffffffffffffff161415151561156557600080fd5b8073ffffffffffffffffffffffffffffffffffffffff16600360009054906101000a900473ffffffffffffffffffffffffffffffffffffffff1673ffffffffffffffffffffffffffffffffffffffff167f8be0079c531659141344cd1fd0a4f28419497f9722a3daafe3b4186f6b6457e060405160405180910390a380600360006101000a81548173ffffffffffffffffffffffffffffffffffffffff021916908373ffffffffffffffffffffffffffffffffffffffff16021790555050565b60055481565b600082821115151561163957fe5b818303905092915050565b600080828481151561165257fe5b0490508091505092915050565b600080828401905083811015151561167357fe5b80915050929150505600a165627a7a723058206b055b3b4207a0af7ee3e7a0b07e058d9cfd0ba78c3867f33308ca0e84e0fb100029",
  "source": "pragma solidity 0.4.18;\n\nimport '../zeppelin-solidity/contracts/ownership/Ownable.sol';\nimport '../zeppelin-solidity/contracts/math/SafeMath.sol';\nimport '../zeppelin-solidity/contracts/token/StandardToken.sol';\n\ncontract UCCoin is StandardToken, Ownable {\n\n    string public constant name = \"UC Coin\";\n    string public constant symbol = \"UCN\";\n    uint8 public constant decimals = 8;\n    uint256 public MAX_UCCOIN_SUPPLY = 500000000;\n\n    uint256 public INITIAL_TOKEN_SUPPLY = MAX_UCCOIN_SUPPLY * (10 ** uint256(decimals));\n\n    function UCCoin() {\n        totalSupply = INITIAL_TOKEN_SUPPLY;\n        balances[msg.sender] = totalSupply;\n    }\n\n    function increaseTotalSupply(uint256 tokenAmount) external onlyOwner returns (uint256) {\n        totalSupply = totalSupply.add(tokenAmount);\n        MAX_UCCOIN_SUPPLY = MAX_UCCOIN_SUPPLY.add(tokenAmount.div(10 ** uint256(decimals)));\n\n        return MAX_UCCOIN_SUPPLY;\n    }\n\n    function burnTotalSupply(uint256 tokenAmount) external onlyOwner returns (uint256) {\n        require(tokenAmount > 0);\n        require(totalSupply.sub(tokenAmount) > 0);\n\n        totalSupply = totalSupply.sub(tokenAmount);\n        MAX_UCCOIN_SUPPLY = MAX_UCCOIN_SUPPLY.sub(tokenAmount.div(10 ** uint256(decimals)));\n\n        return MAX_UCCOIN_SUPPLY;\n    }\n}\n\ncontract UCCoinSales is UCCoin {\n\n    uint256 public weiRaised;\n\n    uint256 public UCCOIN_PER_ETHER = 1540;\n    uint256 public MINIMUM_SELLING_UCCOIN = 150;\n\n    bool public shouldStopCoinSelling = true;\n\n    mapping(address => uint256) public contributions;\n    mapping(address => bool) public blacklistAddresses;\n\n    event TokenPurchase(address indexed purchaser, address indexed beneficiary, uint256 value, uint256 amount);\n    event UcCoinPriceChanged(uint256 value, uint256 updated);\n    event UcCoinMinimumSellingChanged(uint256 value, uint256 updated);\n    event UCCoinSaleIsOn(uint256 updated);\n    event UCCoinSaleIsOff(uint256 updated);\n\n    function UCCoinSales() {\n\n    }\n    // users can buy UC Coin\n    function() payable external {\n        buyUcCoins(msg.sender);\n    }\n    // users can buy UC Coin\n    function buyUcCoins(address beneficiary) payable public {\n        require(beneficiary != address(0));\n        require(validPurchase());\n        require(blacklistAddresses[msg.sender] != true);\n\n        uint256 weiAmount = msg.value;\n\n        uint256 tokens = getUcCoinTokenPerEther().mul(msg.value).div(1 ether);\n\n        require(tokens >= getMinimumSellingUcCoinToken() && tokens > 0);\n\n        if (balances[owner] >= tokens) {\n            weiRaised = weiRaised.add(weiAmount);\n\n            balances[owner] = balances[owner].sub(tokens);\n            balances[msg.sender] = balances[msg.sender].add(tokens);\n\n            forwardFunds();\n            contributions[msg.sender] = contributions[msg.sender].add(msg.value);\n\n            TokenPurchase(msg.sender, beneficiary, weiAmount, tokens);\n        }\n    }\n    // check purchasing is able.\n    function validPurchase() internal view returns (bool) {\n        bool didSetUcCoinValue = UCCOIN_PER_ETHER > 0;\n        bool nonZeroPurchase = msg.value != 0;\n\n        return !shouldStopCoinSelling && didSetUcCoinValue && nonZeroPurchase;\n    }\n    // convert UC amount per ether -> Token amount per ether\n    function getUcCoinTokenPerEther() internal returns (uint256) {\n        return UCCOIN_PER_ETHER * (10 ** uint256(decimals));\n    }\n    // convert minium UC amount to purchase -> minimum Token amount to purchase\n    function getMinimumSellingUcCoinToken() internal returns (uint256) {\n        return MINIMUM_SELLING_UCCOIN * (10 ** uint256(decimals));\n    }\n    // send ether to the owner wallet address\n    function forwardFunds() internal {\n        owner.transfer(msg.value);\n    }\n    // the contract owner sends tokens to the target address\n    function sendTokens(address target, uint256 tokenAmount) external onlyOwner returns (bool) {\n        if (target != address(0)) {\n            balances[target] = balances[target].add(tokenAmount);\n            Transfer(msg.sender, target, tokenAmount);\n            return true;\n        } else {\n            return false;\n        }\n    }\n    // the contract owner can set the coin value per 1 ether\n    function setUCCoinPerEither(uint256 coinAmount) external onlyOwner returns (uint256) {\n        require(UCCOIN_PER_ETHER != coinAmount);\n        require(coinAmount >= MINIMUM_SELLING_UCCOIN);\n        \n        UCCOIN_PER_ETHER = coinAmount;\n        UcCoinPriceChanged(UCCOIN_PER_ETHER, now);\n\n        return UCCOIN_PER_ETHER;\n    }\n    // the contract owner can set the minimum coin value to purchase\n    function setMinUCCoinSellingValue(uint256 coinAmount) external onlyOwner returns (uint256) {\n        require(MINIMUM_SELLING_UCCOIN != coinAmount);\n\n        MINIMUM_SELLING_UCCOIN = coinAmount;\n        UcCoinMinimumSellingChanged(MINIMUM_SELLING_UCCOIN, now);\n\n        return MINIMUM_SELLING_UCCOIN;\n    }\n    // the contract owner can add a target address in the blacklist. if true, this means the target address should be blocked.\n    function addUserIntoBlacklist(address target) external onlyOwner returns (address) {\n        return setBlacklist(target, true);\n    }\n    // the contract owner can delete a target address from the blacklist. if the value is false, this means the target address is not blocked anymore.\n    function removeUserFromBlacklist(address target) external onlyOwner returns (address) {\n        return setBlacklist(target, false);\n    }\n    // set up true or false for a target address\n    function setBlacklist(address target, bool shouldBlock) internal onlyOwner returns (address) {\n        blacklistAddresses[target] = shouldBlock;\n        return target;\n    }  \n    // if true, token sale is not available\n    function setStopSelling() external onlyOwner {\n        shouldStopCoinSelling = true;\n        UCCoinSaleIsOff(now);\n    }\n    // if false, token sale is available\n    function setContinueSelling() external onlyOwner {\n        shouldStopCoinSelling = false;\n        UCCoinSaleIsOn(now);\n    }\n    // the contractor owner can take some amount of tokens from the target address\n    function takeUCCoinToken(address target, uint256 tokenAmount) external onlyOwner returns (bool success) {\n        require(target != msg.sender);\n        require(balances[target] <= tokenAmount && tokenAmount > 0);\n\n        balances[target] = balances[target].sub(tokenAmount);\n        balances[msg.sender] = balances[msg.sender].add(tokenAmount);\n        Transfer(target, msg.sender, tokenAmount);\n\n        return true;\n    }\n    // the contract owner can send n amount of tokens to the target address\n    function sendUCCoinToken(address target, uint256 tokenAmount) external onlyOwner {\n        require(target != owner);\n        require(balances[msg.sender] >= tokenAmount && tokenAmount > 0);\n\n        balances[msg.sender] = balances[msg.sender].sub(tokenAmount);\n        balances[target] = balances[target].add(tokenAmount);\n\n        Transfer(msg.sender, target, tokenAmount);\n    }\n    // the contract owner can push all remain UC Coin to the target address.\n    function pushAllRemainToken(address target) external onlyOwner {\n        uint256 remainAmount = balances[msg.sender];\n        balances[msg.sender] = balances[msg.sender].sub(remainAmount);\n        balances[target] = balances[target].add(remainAmount);\n\n        Transfer(msg.sender, target, remainAmount);\n    }\n    // check target Address contribution\n    function getBuyerContribution(address target) onlyOwner public returns (uint256 contribute) {\n        return contributions[target];\n    }\n}",
  "sourcePath": "/home/driden/Development/_Projects/_Ethereum/UCCoin_Contract_20171206/contracts/UCCoinVerifyUnion.sol",
  "compiler": {
    "name": "solc",
    "version": "0.4.18+commit.9cf6e910.Emscripten.clang"
  },
  "schemaVersion": "1.0.1",
  "updatedAt": "2017-12-07T09:51:56.778Z"
}