{
  "contractName": "UCCoinSales",
  "abi": [
    {
      "constant": false,
      "inputs": [
        {
          "name": "target",
          "type": "address"
        },
        {
          "name": "tokenAmount",
          "type": "uint256"
        }
      ],
      "name": "sendTokens",
      "outputs": [
        {
          "name": "",
          "type": "bool"
        }
      ],
      "payable": false,
      "stateMutability": "nonpayable",
      "type": "function"
    },
    {
      "constant": true,
      "inputs": [],
      "name": "name",
      "outputs": [
        {
          "name": "",
          "type": "string"
        }
      ],
      "payable": false,
      "stateMutability": "view",
      "type": "function"
    },
    {
      "constant": false,
      "inputs": [
        {
          "name": "_spender",
          "type": "address"
        },
        {
          "name": "_value",
          "type": "uint256"
        }
      ],
      "name": "approve",
      "outputs": [
        {
          "name": "",
          "type": "bool"
        }
      ],
      "payable": false,
      "stateMutability": "nonpayable",
      "type": "function"
    },
    {
      "constant": false,
      "inputs": [
        {
          "name": "tokenAmount",
          "type": "uint256"
        }
      ],
      "name": "burnTotalSupply",
      "outputs": [
        {
          "name": "",
          "type": "uint256"
        }
      ],
      "payable": false,
      "stateMutability": "nonpayable",
      "type": "function"
    },
    {
      "constant": true,
      "inputs": [],
      "name": "totalSupply",
      "outputs": [
        {
          "name": "",
          "type": "uint256"
        }
      ],
      "payable": false,
      "stateMutability": "view",
      "type": "function"
    },
    {
      "constant": false,
      "inputs": [
        {
          "name": "coinAmount",
          "type": "uint256"
        }
      ],
      "name": "setMinUCCoinSellingValue",
      "outputs": [
        {
          "name": "",
          "type": "uint256"
        }
      ],
      "payable": false,
      "stateMutability": "nonpayable",
      "type": "function"
    },
    {
      "constant": false,
      "inputs": [
        {
          "name": "target",
          "type": "address"
        }
      ],
      "name": "pushAllRemainToken",
      "outputs": [],
      "payable": false,
      "stateMutability": "nonpayable",
      "type": "function"
    },
    {
      "constant": false,
      "inputs": [
        {
          "name": "tokenAmount",
          "type": "uint256"
        }
      ],
      "name": "increaseTotalSupply",
      "outputs": [
        {
          "name": "",
          "type": "uint256"
        }
      ],
      "payable": false,
      "stateMutability": "nonpayable",
      "type": "function"
    },
    {
      "constant": false,
      "inputs": [
        {
          "name": "beneficiary",
          "type": "address"
        }
      ],
      "name": "buyUcCoins",
      "outputs": [],
      "payable": true,
      "stateMutability": "payable",
      "type": "function"
    },
    {
      "constant": false,
      "inputs": [
        {
          "name": "_from",
          "type": "address"
        },
        {
          "name": "_to",
          "type": "address"
        },
        {
          "name": "_value",
          "type": "uint256"
        }
      ],
      "name": "transferFrom",
      "outputs": [
        {
          "name": "",
          "type": "bool"
        }
      ],
      "payable": false,
      "stateMutability": "nonpayable",
      "type": "function"
    },
    {
      "constant": true,
      "inputs": [],
      "name": "MINIMUM_SELLING_UCCOIN",
      "outputs": [
        {
          "name": "",
          "type": "uint256"
        }
      ],
      "payable": false,
      "stateMutability": "view",
      "type": "function"
    },
    {
      "constant": true,
      "inputs": [],
      "name": "decimals",
      "outputs": [
        {
          "name": "",
          "type": "uint8"
        }
      ],
      "payable": false,
      "stateMutability": "view",
      "type": "function"
    },
    {
      "constant": true,
      "inputs": [],
      "name": "shouldStopCoinSelling",
      "outputs": [
        {
          "name": "",
          "type": "bool"
        }
      ],
      "payable": false,
      "stateMutability": "view",
      "type": "function"
    },
    {
      "constant": false,
      "inputs": [
        {
          "name": "target",
          "type": "address"
        },
        {
          "name": "tokenAmount",
          "type": "uint256"
        }
      ],
      "name": "sendUCCoinToken",
      "outputs": [],
      "payable": false,
      "stateMutability": "nonpayable",
      "type": "function"
    },
    {
      "constant": true,
      "inputs": [],
      "name": "weiRaised",
      "outputs": [
        {
          "name": "",
          "type": "uint256"
        }
      ],
      "payable": false,
      "stateMutability": "view",
      "type": "function"
    },
    {
      "constant": true,
      "inputs": [
        {
          "name": "",
          "type": "address"
        }
      ],
      "name": "contributions",
      "outputs": [
        {
          "name": "",
          "type": "uint256"
        }
      ],
      "payable": false,
      "stateMutability": "view",
      "type": "function"
    },
    {
      "constant": false,
      "inputs": [
        {
          "name": "_spender",
          "type": "address"
        },
        {
          "name": "_subtractedValue",
          "type": "uint256"
        }
      ],
      "name": "decreaseApproval",
      "outputs": [
        {
          "name": "",
          "type": "bool"
        }
      ],
      "payable": false,
      "stateMutability": "nonpayable",
      "type": "function"
    },
    {
      "constant": true,
      "inputs": [
        {
          "name": "_owner",
          "type": "address"
        }
      ],
      "name": "balanceOf",
      "outputs": [
        {
          "name": "balance",
          "type": "uint256"
        }
      ],
      "payable": false,
      "stateMutability": "view",
      "type": "function"
    },
    {
      "constant": true,
      "inputs": [],
      "name": "MAX_UCCOIN_SUPPLY",
      "outputs": [
        {
          "name": "",
          "type": "uint256"
        }
      ],
      "payable": false,
      "stateMutability": "view",
      "type": "function"
    },
    {
      "constant": false,
      "inputs": [
        {
          "name": "target",
          "type": "address"
        }
      ],
      "name": "removeUserFromBlacklist",
      "outputs": [
        {
          "name": "",
          "type": "address"
        }
      ],
      "payable": false,
      "stateMutability": "nonpayable",
      "type": "function"
    },
    {
      "constant": true,
      "inputs": [],
      "name": "owner",
      "outputs": [
        {
          "name": "",
          "type": "address"
        }
      ],
      "payable": false,
      "stateMutability": "view",
      "type": "function"
    },
    {
      "constant": true,
      "inputs": [
        {
          "name": "",
          "type": "address"
        }
      ],
      "name": "blacklistAddresses",
      "outputs": [
        {
          "name": "",
          "type": "bool"
        }
      ],
      "payable": false,
      "stateMutability": "view",
      "type": "function"
    },
    {
      "constant": true,
      "inputs": [],
      "name": "symbol",
      "outputs": [
        {
          "name": "",
          "type": "string"
        }
      ],
      "payable": false,
      "stateMutability": "view",
      "type": "function"
    },
    {
      "constant": false,
      "inputs": [
        {
          "name": "target",
          "type": "address"
        }
      ],
      "name": "getBuyerContribution",
      "outputs": [
        {
          "name": "contribute",
          "type": "uint256"
        }
      ],
      "payable": false,
      "stateMutability": "nonpayable",
      "type": "function"
    },
    {
      "constant": false,
      "inputs": [
        {
          "name": "target",
          "type": "address"
        },
        {
          "name": "tokenAmount",
          "type": "uint256"
        }
      ],
      "name": "takeUCCoinToken",
      "outputs": [
        {
          "name": "success",
          "type": "bool"
        }
      ],
      "payable": false,
      "stateMutability": "nonpayable",
      "type": "function"
    },
    {
      "constant": false,
      "inputs": [
        {
          "name": "target",
          "type": "address"
        }
      ],
      "name": "addUserIntoBlacklist",
      "outputs": [
        {
          "name": "",
          "type": "address"
        }
      ],
      "payable": false,
      "stateMutability": "nonpayable",
      "type": "function"
    },
    {
      "constant": false,
      "inputs": [
        {
          "name": "_to",
          "type": "address"
        },
        {
          "name": "_value",
          "type": "uint256"
        }
      ],
      "name": "transfer",
      "outputs": [
        {
          "name": "",
          "type": "bool"
        }
      ],
      "payable": false,
      "stateMutability": "nonpayable",
      "type": "function"
    },
    {
      "constant": true,
      "inputs": [],
      "name": "UCCOIN_PER_ETHER",
      "outputs": [
        {
          "name": "",
          "type": "uint256"
        }
      ],
      "payable": false,
      "stateMutability": "view",
      "type": "function"
    },
    {
      "constant": false,
      "inputs": [],
      "name": "setStopSelling",
      "outputs": [],
      "payable": false,
      "stateMutability": "nonpayable",
      "type": "function"
    },
    {
      "constant": false,
      "inputs": [],
      "name": "setContinueSelling",
      "outputs": [],
      "payable": false,
      "stateMutability": "nonpayable",
      "type": "function"
    },
    {
      "constant": false,
      "inputs": [
        {
          "name": "_spender",
          "type": "address"
        },
        {
          "name": "_addedValue",
          "type": "uint256"
        }
      ],
      "name": "increaseApproval",
      "outputs": [
        {
          "name": "",
          "type": "bool"
        }
      ],
      "payable": false,
      "stateMutability": "nonpayable",
      "type": "function"
    },
    {
      "constant": true,
      "inputs": [
        {
          "name": "_owner",
          "type": "address"
        },
        {
          "name": "_spender",
          "type": "address"
        }
      ],
      "name": "allowance",
      "outputs": [
        {
          "name": "",
          "type": "uint256"
        }
      ],
      "payable": false,
      "stateMutability": "view",
      "type": "function"
    },
    {
      "constant": false,
      "inputs": [
        {
          "name": "coinAmount",
          "type": "uint256"
        }
      ],
      "name": "setUCCoinPerEither",
      "outputs": [
        {
          "name": "",
          "type": "uint256"
        }
      ],
      "payable": false,
      "stateMutability": "nonpayable",
      "type": "function"
    },
    {
      "constant": false,
      "inputs": [
        {
          "name": "newOwner",
          "type": "address"
        }
      ],
      "name": "transferOwnership",
      "outputs": [],
      "payable": false,
      "stateMutability": "nonpayable",
      "type": "function"
    },
    {
      "constant": true,
      "inputs": [],
      "name": "INITIAL_TOKEN_SUPPLY",
      "outputs": [
        {
          "name": "",
          "type": "uint256"
        }
      ],
      "payable": false,
      "stateMutability": "view",
      "type": "function"
    },
    {
      "inputs": [],
      "payable": false,
      "stateMutability": "nonpayable",
      "type": "constructor"
    },
    {
      "payable": true,
      "stateMutability": "payable",
      "type": "fallback"
    },
    {
      "anonymous": false,
      "inputs": [
        {
          "indexed": true,
          "name": "purchaser",
          "type": "address"
        },
        {
          "indexed": true,
          "name": "beneficiary",
          "type": "address"
        },
        {
          "indexed": false,
          "name": "value",
          "type": "uint256"
        },
        {
          "indexed": false,
          "name": "amount",
          "type": "uint256"
        }
      ],
      "name": "TokenPurchase",
      "type": "event"
    },
    {
      "anonymous": false,
      "inputs": [
        {
          "indexed": false,
          "name": "value",
          "type": "uint256"
        },
        {
          "indexed": false,
          "name": "updated",
          "type": "uint256"
        }
      ],
      "name": "UcCoinPriceChanged",
      "type": "event"
    },
    {
      "anonymous": false,
      "inputs": [
        {
          "indexed": false,
          "name": "value",
          "type": "uint256"
        },
        {
          "indexed": false,
          "name": "updated",
          "type": "uint256"
        }
      ],
      "name": "UcCoinMinimumSellingChanged",
      "type": "event"
    },
    {
      "anonymous": false,
      "inputs": [
        {
          "indexed": false,
          "name": "updated",
          "type": "uint256"
        }
      ],
      "name": "UCCoinSaleIsOn",
      "type": "event"
    },
    {
      "anonymous": false,
      "inputs": [
        {
          "indexed": false,
          "name": "updated",
          "type": "uint256"
        }
      ],
      "name": "UCCoinSaleIsOff",
      "type": "event"
    },
    {
      "anonymous": false,
      "inputs": [
        {
          "indexed": true,
          "name": "previousOwner",
          "type": "address"
        },
        {
          "indexed": true,
          "name": "newOwner",
          "type": "address"
        }
      ],
      "name": "OwnershipTransferred",
      "type": "event"
    },
    {
      "anonymous": false,
      "inputs": [
        {
          "indexed": true,
          "name": "owner",
          "type": "address"
        },
        {
          "indexed": true,
          "name": "spender",
          "type": "address"
        },
        {
          "indexed": false,
          "name": "value",
          "type": "uint256"
        }
      ],
      "name": "Approval",
      "type": "event"
    },
    {
      "anonymous": false,
      "inputs": [
        {
          "indexed": true,
          "name": "from",
          "type": "address"
        },
        {
          "indexed": true,
          "name": "to",
          "type": "address"
        },
        {
          "indexed": false,
          "name": "value",
          "type": "uint256"
        }
      ],
      "name": "Transfer",
      "type": "event"
    }
  ],
  "bytecode": "0x6060604052631dcd6500600455600860ff16600a0a6004540260055561060460075560966008556001600960006101000a81548160ff021916908315150217905550341561004c57600080fd5b33600360006101000a81548173ffffffffffffffffffffffffffffffffffffffff021916908373ffffffffffffffffffffffffffffffffffffffff160217905550600554600081905550600054600160003373ffffffffffffffffffffffffffffffffffffffff1673ffffffffffffffffffffffffffffffffffffffff16815260200190815260200160002081905550612f9b806100eb6000396000f3006060604052600436106101b7576000357c0100000000000000000000000000000000000000000000000000000000900463ffffffff16806305ab421d146101c257806306fdde031461021c578063095ea7b3146102aa57806316e242ca1461030457806318160ddd1461033b578063189f4d34146103645780631a1e01d51461039b5780631d43cc98146103d45780631ec7371e1461040b57806323b872dd146104395780632e7248bf146104b2578063313ce567146104db578063380754461461050a5780633abf3aef146105375780634042b66f1461057957806342e94c90146105a257806366188463146105ef57806370a08231146106495780637506721914610696578063892ee1a2146106bf5780638da5cb5b146107385780638e77fe2f1461078d57806395d89b41146107de5780639d3ac6d51461086c578063a2807850146108b9578063a3208c1e14610913578063a9059cbb1461098c578063a9bb3274146109e6578063cb4b371014610a0f578063cef037fd14610a24578063d73dd62314610a39578063dd62ed3e14610a93578063ee5135e114610aff578063f2fde38b14610b36578063f975f3a214610b6f575b6101c033610b98565b005b34156101cd57600080fd5b610202600480803573ffffffffffffffffffffffffffffffffffffffff16906020019091908035906020019091905050610fa8565b604051808215151515815260200191505060405180910390f35b341561022757600080fd5b61022f61114a565b6040518080602001828103825283818151815260200191508051906020019080838360005b8381101561026f578082015181840152602081019050610254565b50505050905090810190601f16801561029c5780820380516001836020036101000a031916815260200191505b509250505060405180910390f35b34156102b557600080fd5b6102ea600480803573ffffffffffffffffffffffffffffffffffffffff16906020019091908035906020019091905050611183565b604051808215151515815260200191505060405180910390f35b341561030f57600080fd5b6103256004808035906020019091905050611275565b6040518082815260200191505060405180910390f35b341561034657600080fd5b61034e61135e565b6040518082815260200191505060405180910390f35b341561036f57600080fd5b6103856004808035906020019091905050611364565b6040518082815260200191505060405180910390f35b34156103a657600080fd5b6103d2600480803573ffffffffffffffffffffffffffffffffffffffff16906020019091905050611425565b005b34156103df57600080fd5b6103f56004808035906020019091905050611658565b6040518082815260200191505060405180910390f35b610437600480803573ffffffffffffffffffffffffffffffffffffffff16906020019091905050610b98565b005b341561044457600080fd5b610498600480803573ffffffffffffffffffffffffffffffffffffffff1690602001909190803573ffffffffffffffffffffffffffffffffffffffff1690602001909190803590602001909190505061170f565b604051808215151515815260200191505060405180910390f35b34156104bd57600080fd5b6104c5611ace565b6040518082815260200191505060405180910390f35b34156104e657600080fd5b6104ee611ad4565b604051808260ff1660ff16815260200191505060405180910390f35b341561051557600080fd5b61051d611ad9565b604051808215151515815260200191505060405180910390f35b341561054257600080fd5b610577600480803573ffffffffffffffffffffffffffffffffffffffff16906020019091908035906020019091905050611aec565b005b341561058457600080fd5b61058c611d92565b6040518082815260200191505060405180910390f35b34156105ad57600080fd5b6105d9600480803573ffffffffffffffffffffffffffffffffffffffff16906020019091905050611d98565b6040518082815260200191505060405180910390f35b34156105fa57600080fd5b61062f600480803573ffffffffffffffffffffffffffffffffffffffff16906020019091908035906020019091905050611db0565b604051808215151515815260200191505060405180910390f35b341561065457600080fd5b610680600480803573ffffffffffffffffffffffffffffffffffffffff16906020019091905050612041565b6040518082815260200191505060405180910390f35b34156106a157600080fd5b6106a961208a565b6040518082815260200191505060405180910390f35b34156106ca57600080fd5b6106f6600480803573ffffffffffffffffffffffffffffffffffffffff16906020019091905050612090565b604051808273ffffffffffffffffffffffffffffffffffffffff1673ffffffffffffffffffffffffffffffffffffffff16815260200191505060405180910390f35b341561074357600080fd5b61074b612100565b604051808273ffffffffffffffffffffffffffffffffffffffff1673ffffffffffffffffffffffffffffffffffffffff16815260200191505060405180910390f35b341561079857600080fd5b6107c4600480803573ffffffffffffffffffffffffffffffffffffffff16906020019091905050612126565b604051808215151515815260200191505060405180910390f35b34156107e957600080fd5b6107f1612146565b6040518080602001828103825283818151815260200191508051906020019080838360005b83811015610831578082015181840152602081019050610816565b50505050905090810190601f16801561085e5780820380516001836020036101000a031916815260200191505b509250505060405180910390f35b341561087757600080fd5b6108a3600480803573ffffffffffffffffffffffffffffffffffffffff1690602001909190505061217f565b6040518082815260200191505060405180910390f35b34156108c457600080fd5b6108f9600480803573ffffffffffffffffffffffffffffffffffffffff16906020019091908035906020019091905050612224565b604051808215151515815260200191505060405180910390f35b341561091e57600080fd5b61094a600480803573ffffffffffffffffffffffffffffffffffffffff169060200190919050506124b0565b604051808273ffffffffffffffffffffffffffffffffffffffff1673ffffffffffffffffffffffffffffffffffffffff16815260200191505060405180910390f35b341561099757600080fd5b6109cc600480803573ffffffffffffffffffffffffffffffffffffffff16906020019091908035906020019091905050612520565b604051808215151515815260200191505060405180910390f35b34156109f157600080fd5b6109f9612744565b6040518082815260200191505060405180910390f35b3415610a1a57600080fd5b610a2261274a565b005b3415610a2f57600080fd5b610a376127fa565b005b3415610a4457600080fd5b610a79600480803573ffffffffffffffffffffffffffffffffffffffff169060200190919080359060200190919050506128aa565b604051808215151515815260200191505060405180910390f35b3415610a9e57600080fd5b610ae9600480803573ffffffffffffffffffffffffffffffffffffffff1690602001909190803573ffffffffffffffffffffffffffffffffffffffff16906020019091905050612aa6565b6040518082815260200191505060405180910390f35b3415610b0a57600080fd5b610b206004808035906020019091905050612b2d565b6040518082815260200191505060405180910390f35b3415610b4157600080fd5b610b6d600480803573ffffffffffffffffffffffffffffffffffffffff16906020019091905050612bff565b005b3415610b7a57600080fd5b610b82612d57565b6040518082815260200191505060405180910390f35b600080600073ffffffffffffffffffffffffffffffffffffffff168373ffffffffffffffffffffffffffffffffffffffff1614151515610bd757600080fd5b610bdf612d5d565b1515610bea57600080fd5b60011515600b60003373ffffffffffffffffffffffffffffffffffffffff1673ffffffffffffffffffffffffffffffffffffffff16815260200190815260200160002060009054906101000a900460ff16151514151515610c4a57600080fd5b349150610c81670de0b6b3a7640000610c7334610c65612d9a565b612dad90919063ffffffff16565b612de890919063ffffffff16565b9050610c8b612e03565b8110158015610c9a5750600081115b1515610ca557600080fd5b8060016000600360009054906101000a900473ffffffffffffffffffffffffffffffffffffffff1673ffffffffffffffffffffffffffffffffffffffff1673ffffffffffffffffffffffffffffffffffffffff16815260200190815260200160002054101515610fa357610d2482600654612e1690919063ffffffff16565b600681905550610d9e8160016000600360009054906101000a900473ffffffffffffffffffffffffffffffffffffffff1673ffffffffffffffffffffffffffffffffffffffff1673ffffffffffffffffffffffffffffffffffffffff16815260200190815260200160002054612e3490919063ffffffff16565b60016000600360009054906101000a900473ffffffffffffffffffffffffffffffffffffffff1673ffffffffffffffffffffffffffffffffffffffff1673ffffffffffffffffffffffffffffffffffffffff16815260200190815260200160002081905550610e5581600160003373ffffffffffffffffffffffffffffffffffffffff1673ffffffffffffffffffffffffffffffffffffffff16815260200190815260200160002054612e1690919063ffffffff16565b600160003373ffffffffffffffffffffffffffffffffffffffff1673ffffffffffffffffffffffffffffffffffffffff16815260200190815260200160002081905550610ea0612e4d565b610ef234600a60003373ffffffffffffffffffffffffffffffffffffffff1673ffffffffffffffffffffffffffffffffffffffff16815260200190815260200160002054612e1690919063ffffffff16565b600a60003373ffffffffffffffffffffffffffffffffffffffff1673ffffffffffffffffffffffffffffffffffffffff168152602001908152602001600020819055508273ffffffffffffffffffffffffffffffffffffffff163373ffffffffffffffffffffffffffffffffffffffff167f623b3804fa71d67900d064613da8f94b9617215ee90799290593e1745087ad188484604051808381526020018281526020019250505060405180910390a35b505050565b6000600360009054906101000a900473ffffffffffffffffffffffffffffffffffffffff1673ffffffffffffffffffffffffffffffffffffffff163373ffffffffffffffffffffffffffffffffffffffff1614151561100657600080fd5b600073ffffffffffffffffffffffffffffffffffffffff168373ffffffffffffffffffffffffffffffffffffffff1614151561113f5761108e82600160008673ffffffffffffffffffffffffffffffffffffffff1673ffffffffffffffffffffffffffffffffffffffff16815260200190815260200160002054612e1690919063ffffffff16565b600160008573ffffffffffffffffffffffffffffffffffffffff1673ffffffffffffffffffffffffffffffffffffffff168152602001908152602001600020819055508273ffffffffffffffffffffffffffffffffffffffff163373ffffffffffffffffffffffffffffffffffffffff167fddf252ad1be2c89b69c2b068fc378daa952ba7f163c4a11628f55a4df523b3ef846040518082815260200191505060405180910390a360019050611144565b600090505b92915050565b6040805190810160405280600781526020017f554320436f696e0000000000000000000000000000000000000000000000000081525081565b600081600260003373ffffffffffffffffffffffffffffffffffffffff1673ffffffffffffffffffffffffffffffffffffffff16815260200190815260200160002060008573ffffffffffffffffffffffffffffffffffffffff1673ffffffffffffffffffffffffffffffffffffffff168152602001908152602001600020819055508273ffffffffffffffffffffffffffffffffffffffff163373ffffffffffffffffffffffffffffffffffffffff167f8c5be1e5ebec7d5bd14f71427d1e84f3dd0314c0f7b2291e5b200ac8c7c3b925846040518082815260200191505060405180910390a36001905092915050565b6000600360009054906101000a900473ffffffffffffffffffffffffffffffffffffffff1673ffffffffffffffffffffffffffffffffffffffff163373ffffffffffffffffffffffffffffffffffffffff161415156112d357600080fd5b6000821115156112e257600080fd5b60006112f983600054612e3490919063ffffffff16565b11151561130557600080fd5b61131a82600054612e3490919063ffffffff16565b60008190555061134e61133d600860ff16600a0a84612de890919063ffffffff16565b600454612e3490919063ffffffff16565b6004819055506004549050919050565b60005481565b6000600360009054906101000a900473ffffffffffffffffffffffffffffffffffffffff1673ffffffffffffffffffffffffffffffffffffffff163373ffffffffffffffffffffffffffffffffffffffff161415156113c257600080fd5b81600854141515156113d357600080fd5b816008819055507f66a51d1d0e368bb06b84d8c6e3fea62511f652fa1c54df86a5a55c3a1de0c9e560085442604051808381526020018281526020019250505060405180910390a16008549050919050565b6000600360009054906101000a900473ffffffffffffffffffffffffffffffffffffffff1673ffffffffffffffffffffffffffffffffffffffff163373ffffffffffffffffffffffffffffffffffffffff1614151561148357600080fd5b600160003373ffffffffffffffffffffffffffffffffffffffff1673ffffffffffffffffffffffffffffffffffffffff16815260200190815260200160002054905061151781600160003373ffffffffffffffffffffffffffffffffffffffff1673ffffffffffffffffffffffffffffffffffffffff16815260200190815260200160002054612e3490919063ffffffff16565b600160003373ffffffffffffffffffffffffffffffffffffffff1673ffffffffffffffffffffffffffffffffffffffff168152602001908152602001600020819055506115ac81600160008573ffffffffffffffffffffffffffffffffffffffff1673ffffffffffffffffffffffffffffffffffffffff16815260200190815260200160002054612e1690919063ffffffff16565b600160008473ffffffffffffffffffffffffffffffffffffffff1673ffffffffffffffffffffffffffffffffffffffff168152602001908152602001600020819055508173ffffffffffffffffffffffffffffffffffffffff163373ffffffffffffffffffffffffffffffffffffffff167fddf252ad1be2c89b69c2b068fc378daa952ba7f163c4a11628f55a4df523b3ef836040518082815260200191505060405180910390a35050565b6000600360009054906101000a900473ffffffffffffffffffffffffffffffffffffffff1673ffffffffffffffffffffffffffffffffffffffff163373ffffffffffffffffffffffffffffffffffffffff161415156116b657600080fd5b6116cb82600054612e1690919063ffffffff16565b6000819055506116ff6116ee600860ff16600a0a84612de890919063ffffffff16565b600454612e1690919063ffffffff16565b6004819055506004549050919050565b60008073ffffffffffffffffffffffffffffffffffffffff168373ffffffffffffffffffffffffffffffffffffffff161415151561174c57600080fd5b600160008573ffffffffffffffffffffffffffffffffffffffff1673ffffffffffffffffffffffffffffffffffffffff16815260200190815260200160002054821115151561179a57600080fd5b600260008573ffffffffffffffffffffffffffffffffffffffff1673ffffffffffffffffffffffffffffffffffffffff16815260200190815260200160002060003373ffffffffffffffffffffffffffffffffffffffff1673ffffffffffffffffffffffffffffffffffffffff16815260200190815260200160002054821115151561182557600080fd5b61187782600160008773ffffffffffffffffffffffffffffffffffffffff1673ffffffffffffffffffffffffffffffffffffffff16815260200190815260200160002054612e3490919063ffffffff16565b600160008673ffffffffffffffffffffffffffffffffffffffff1673ffffffffffffffffffffffffffffffffffffffff1681526020019081526020016000208190555061190c82600160008673ffffffffffffffffffffffffffffffffffffffff1673ffffffffffffffffffffffffffffffffffffffff16815260200190815260200160002054612e1690919063ffffffff16565b600160008573ffffffffffffffffffffffffffffffffffffffff1673ffffffffffffffffffffffffffffffffffffffff168152602001908152602001600020819055506119de82600260008773ffffffffffffffffffffffffffffffffffffffff1673ffffffffffffffffffffffffffffffffffffffff16815260200190815260200160002060003373ffffffffffffffffffffffffffffffffffffffff1673ffffffffffffffffffffffffffffffffffffffff16815260200190815260200160002054612e3490919063ffffffff16565b600260008673ffffffffffffffffffffffffffffffffffffffff1673ffffffffffffffffffffffffffffffffffffffff16815260200190815260200160002060003373ffffffffffffffffffffffffffffffffffffffff1673ffffffffffffffffffffffffffffffffffffffff168152602001908152602001600020819055508273ffffffffffffffffffffffffffffffffffffffff168473ffffffffffffffffffffffffffffffffffffffff167fddf252ad1be2c89b69c2b068fc378daa952ba7f163c4a11628f55a4df523b3ef846040518082815260200191505060405180910390a3600190509392505050565b60085481565b600881565b600960009054906101000a900460ff1681565b600360009054906101000a900473ffffffffffffffffffffffffffffffffffffffff1673ffffffffffffffffffffffffffffffffffffffff163373ffffffffffffffffffffffffffffffffffffffff16141515611b4857600080fd5b600360009054906101000a900473ffffffffffffffffffffffffffffffffffffffff1673ffffffffffffffffffffffffffffffffffffffff168273ffffffffffffffffffffffffffffffffffffffff1614151515611ba557600080fd5b80600160003373ffffffffffffffffffffffffffffffffffffffff1673ffffffffffffffffffffffffffffffffffffffff1681526020019081526020016000205410158015611bf45750600081115b1515611bff57600080fd5b611c5181600160003373ffffffffffffffffffffffffffffffffffffffff1673ffffffffffffffffffffffffffffffffffffffff16815260200190815260200160002054612e3490919063ffffffff16565b600160003373ffffffffffffffffffffffffffffffffffffffff1673ffffffffffffffffffffffffffffffffffffffff16815260200190815260200160002081905550611ce681600160008573ffffffffffffffffffffffffffffffffffffffff1673ffffffffffffffffffffffffffffffffffffffff16815260200190815260200160002054612e1690919063ffffffff16565b600160008473ffffffffffffffffffffffffffffffffffffffff1673ffffffffffffffffffffffffffffffffffffffff168152602001908152602001600020819055508173ffffffffffffffffffffffffffffffffffffffff163373ffffffffffffffffffffffffffffffffffffffff167fddf252ad1be2c89b69c2b068fc378daa952ba7f163c4a11628f55a4df523b3ef836040518082815260200191505060405180910390a35050565b60065481565b600a6020528060005260406000206000915090505481565b600080600260003373ffffffffffffffffffffffffffffffffffffffff1673ffffffffffffffffffffffffffffffffffffffff16815260200190815260200160002060008573ffffffffffffffffffffffffffffffffffffffff1673ffffffffffffffffffffffffffffffffffffffff16815260200190815260200160002054905080831115611ec1576000600260003373ffffffffffffffffffffffffffffffffffffffff1673ffffffffffffffffffffffffffffffffffffffff16815260200190815260200160002060008673ffffffffffffffffffffffffffffffffffffffff1673ffffffffffffffffffffffffffffffffffffffff16815260200190815260200160002081905550611f55565b611ed48382612e3490919063ffffffff16565b600260003373ffffffffffffffffffffffffffffffffffffffff1673ffffffffffffffffffffffffffffffffffffffff16815260200190815260200160002060008673ffffffffffffffffffffffffffffffffffffffff1673ffffffffffffffffffffffffffffffffffffffff168152602001908152602001600020819055505b8373ffffffffffffffffffffffffffffffffffffffff163373ffffffffffffffffffffffffffffffffffffffff167f8c5be1e5ebec7d5bd14f71427d1e84f3dd0314c0f7b2291e5b200ac8c7c3b925600260003373ffffffffffffffffffffffffffffffffffffffff1673ffffffffffffffffffffffffffffffffffffffff16815260200190815260200160002060008873ffffffffffffffffffffffffffffffffffffffff1673ffffffffffffffffffffffffffffffffffffffff168152602001908152602001600020546040518082815260200191505060405180910390a3600191505092915050565b6000600160008373ffffffffffffffffffffffffffffffffffffffff1673ffffffffffffffffffffffffffffffffffffffff168152602001908152602001600020549050919050565b60045481565b6000600360009054906101000a900473ffffffffffffffffffffffffffffffffffffffff1673ffffffffffffffffffffffffffffffffffffffff163373ffffffffffffffffffffffffffffffffffffffff161415156120ee57600080fd5b6120f9826000612eb1565b9050919050565b600360009054906101000a900473ffffffffffffffffffffffffffffffffffffffff1681565b600b6020528060005260406000206000915054906101000a900460ff1681565b6040805190810160405280600381526020017f55434e000000000000000000000000000000000000000000000000000000000081525081565b6000600360009054906101000a900473ffffffffffffffffffffffffffffffffffffffff1673ffffffffffffffffffffffffffffffffffffffff163373ffffffffffffffffffffffffffffffffffffffff161415156121dd57600080fd5b600a60008373ffffffffffffffffffffffffffffffffffffffff1673ffffffffffffffffffffffffffffffffffffffff168152602001908152602001600020549050919050565b6000600360009054906101000a900473ffffffffffffffffffffffffffffffffffffffff1673ffffffffffffffffffffffffffffffffffffffff163373ffffffffffffffffffffffffffffffffffffffff1614151561228257600080fd5b3373ffffffffffffffffffffffffffffffffffffffff168373ffffffffffffffffffffffffffffffffffffffff16141515156122bd57600080fd5b81600160008573ffffffffffffffffffffffffffffffffffffffff1673ffffffffffffffffffffffffffffffffffffffff168152602001908152602001600020541115801561230c5750600082115b151561231757600080fd5b61236982600160008673ffffffffffffffffffffffffffffffffffffffff1673ffffffffffffffffffffffffffffffffffffffff16815260200190815260200160002054612e3490919063ffffffff16565b600160008573ffffffffffffffffffffffffffffffffffffffff1673ffffffffffffffffffffffffffffffffffffffff168152602001908152602001600020819055506123fe82600160003373ffffffffffffffffffffffffffffffffffffffff1673ffffffffffffffffffffffffffffffffffffffff16815260200190815260200160002054612e1690919063ffffffff16565b600160003373ffffffffffffffffffffffffffffffffffffffff1673ffffffffffffffffffffffffffffffffffffffff168152602001908152602001600020819055503373ffffffffffffffffffffffffffffffffffffffff168373ffffffffffffffffffffffffffffffffffffffff167fddf252ad1be2c89b69c2b068fc378daa952ba7f163c4a11628f55a4df523b3ef846040518082815260200191505060405180910390a36001905092915050565b6000600360009054906101000a900473ffffffffffffffffffffffffffffffffffffffff1673ffffffffffffffffffffffffffffffffffffffff163373ffffffffffffffffffffffffffffffffffffffff1614151561250e57600080fd5b612519826001612eb1565b9050919050565b60008073ffffffffffffffffffffffffffffffffffffffff168373ffffffffffffffffffffffffffffffffffffffff161415151561255d57600080fd5b600160003373ffffffffffffffffffffffffffffffffffffffff1673ffffffffffffffffffffffffffffffffffffffff1681526020019081526020016000205482111515156125ab57600080fd5b6125fd82600160003373ffffffffffffffffffffffffffffffffffffffff1673ffffffffffffffffffffffffffffffffffffffff16815260200190815260200160002054612e3490919063ffffffff16565b600160003373ffffffffffffffffffffffffffffffffffffffff1673ffffffffffffffffffffffffffffffffffffffff1681526020019081526020016000208190555061269282600160008673ffffffffffffffffffffffffffffffffffffffff1673ffffffffffffffffffffffffffffffffffffffff16815260200190815260200160002054612e1690919063ffffffff16565b600160008573ffffffffffffffffffffffffffffffffffffffff1673ffffffffffffffffffffffffffffffffffffffff168152602001908152602001600020819055508273ffffffffffffffffffffffffffffffffffffffff163373ffffffffffffffffffffffffffffffffffffffff167fddf252ad1be2c89b69c2b068fc378daa952ba7f163c4a11628f55a4df523b3ef846040518082815260200191505060405180910390a36001905092915050565b60075481565b600360009054906101000a900473ffffffffffffffffffffffffffffffffffffffff1673ffffffffffffffffffffffffffffffffffffffff163373ffffffffffffffffffffffffffffffffffffffff161415156127a657600080fd5b6001600960006101000a81548160ff0219169083151502179055507f70354053dd3649889b50a0fa509359defe80885202070179f1d37bf1e12ebab0426040518082815260200191505060405180910390a1565b600360009054906101000a900473ffffffffffffffffffffffffffffffffffffffff1673ffffffffffffffffffffffffffffffffffffffff163373ffffffffffffffffffffffffffffffffffffffff1614151561285657600080fd5b6000600960006101000a81548160ff0219169083151502179055507f3aca37882f780247ad2328832071a806f7aac0cf3fceec9faaef5210c76155d3426040518082815260200191505060405180910390a1565b600061293b82600260003373ffffffffffffffffffffffffffffffffffffffff1673ffffffffffffffffffffffffffffffffffffffff16815260200190815260200160002060008673ffffffffffffffffffffffffffffffffffffffff1673ffffffffffffffffffffffffffffffffffffffff16815260200190815260200160002054612e1690919063ffffffff16565b600260003373ffffffffffffffffffffffffffffffffffffffff1673ffffffffffffffffffffffffffffffffffffffff16815260200190815260200160002060008573ffffffffffffffffffffffffffffffffffffffff1673ffffffffffffffffffffffffffffffffffffffff168152602001908152602001600020819055508273ffffffffffffffffffffffffffffffffffffffff163373ffffffffffffffffffffffffffffffffffffffff167f8c5be1e5ebec7d5bd14f71427d1e84f3dd0314c0f7b2291e5b200ac8c7c3b925600260003373ffffffffffffffffffffffffffffffffffffffff1673ffffffffffffffffffffffffffffffffffffffff16815260200190815260200160002060008773ffffffffffffffffffffffffffffffffffffffff1673ffffffffffffffffffffffffffffffffffffffff168152602001908152602001600020546040518082815260200191505060405180910390a36001905092915050565b6000600260008473ffffffffffffffffffffffffffffffffffffffff1673ffffffffffffffffffffffffffffffffffffffff16815260200190815260200160002060008373ffffffffffffffffffffffffffffffffffffffff1673ffffffffffffffffffffffffffffffffffffffff16815260200190815260200160002054905092915050565b6000600360009054906101000a900473ffffffffffffffffffffffffffffffffffffffff1673ffffffffffffffffffffffffffffffffffffffff163373ffffffffffffffffffffffffffffffffffffffff16141515612b8b57600080fd5b8160075414151515612b9c57600080fd5b6008548210151515612bad57600080fd5b816007819055507f1ac975edd6a2eb14d0d694913aef81bba262b3e65334ad4122ed557bcb08713260075442604051808381526020018281526020019250505060405180910390a16007549050919050565b600360009054906101000a900473ffffffffffffffffffffffffffffffffffffffff1673ffffffffffffffffffffffffffffffffffffffff163373ffffffffffffffffffffffffffffffffffffffff16141515612c5b57600080fd5b600073ffffffffffffffffffffffffffffffffffffffff168173ffffffffffffffffffffffffffffffffffffffff1614151515612c9757600080fd5b8073ffffffffffffffffffffffffffffffffffffffff16600360009054906101000a900473ffffffffffffffffffffffffffffffffffffffff1673ffffffffffffffffffffffffffffffffffffffff167f8be0079c531659141344cd1fd0a4f28419497f9722a3daafe3b4186f6b6457e060405160405180910390a380600360006101000a81548173ffffffffffffffffffffffffffffffffffffffff021916908373ffffffffffffffffffffffffffffffffffffffff16021790555050565b60055481565b60008060008060075411915060003414159050600960009054906101000a900460ff16158015612d8a5750815b8015612d935750805b9250505090565b6000600860ff16600a0a60075402905090565b6000806000841415612dc25760009150612de1565b8284029050828482811515612dd357fe5b04141515612ddd57fe5b8091505b5092915050565b6000808284811515612df657fe5b0490508091505092915050565b6000600860ff16600a0a60085402905090565b6000808284019050838110151515612e2a57fe5b8091505092915050565b6000828211151515612e4257fe5b818303905092915050565b600360009054906101000a900473ffffffffffffffffffffffffffffffffffffffff1673ffffffffffffffffffffffffffffffffffffffff166108fc349081150290604051600060405180830381858888f193505050501515612eaf57600080fd5b565b6000600360009054906101000a900473ffffffffffffffffffffffffffffffffffffffff1673ffffffffffffffffffffffffffffffffffffffff163373ffffffffffffffffffffffffffffffffffffffff16141515612f0f57600080fd5b81600b60008573ffffffffffffffffffffffffffffffffffffffff1673ffffffffffffffffffffffffffffffffffffffff16815260200190815260200160002060006101000a81548160ff021916908315150217905550829050929150505600a165627a7a723058203a944e97361ddb6f9cfacc2b799b98d857a808c8fdf07a6c690d40b9ed1549f40029",
  "source": "pragma solidity 0.4.18;\n\nimport '../zeppelin-solidity/contracts/ownership/Ownable.sol';\nimport '../zeppelin-solidity/contracts/math/SafeMath.sol';\nimport '../zeppelin-solidity/contracts/token/StandardToken.sol';\n\ncontract UCCoin is StandardToken, Ownable {\n\n    string public constant name = \"UC Coin\";\n    string public constant symbol = \"UCN\";\n    uint8 public constant decimals = 8;\n    uint256 public MAX_UCCOIN_SUPPLY = 500000000;\n\n    uint256 public INITIAL_TOKEN_SUPPLY = MAX_UCCOIN_SUPPLY * (10 ** uint256(decimals));\n\n    function UCCoin() {\n        totalSupply = INITIAL_TOKEN_SUPPLY;\n        balances[msg.sender] = totalSupply;\n    }\n\n    function increaseTotalSupply(uint256 tokenAmount) external onlyOwner returns (uint256) {\n        totalSupply = totalSupply.add(tokenAmount);\n        MAX_UCCOIN_SUPPLY = MAX_UCCOIN_SUPPLY.add(tokenAmount.div(10 ** uint256(decimals)));\n\n        return MAX_UCCOIN_SUPPLY;\n    }\n\n    function burnTotalSupply(uint256 tokenAmount) external onlyOwner returns (uint256) {\n        require(tokenAmount > 0);\n        require(totalSupply.sub(tokenAmount) > 0);\n\n        totalSupply = totalSupply.sub(tokenAmount);\n        MAX_UCCOIN_SUPPLY = MAX_UCCOIN_SUPPLY.sub(tokenAmount.div(10 ** uint256(decimals)));\n\n        return MAX_UCCOIN_SUPPLY;\n    }\n}\n\ncontract UCCoinSales is UCCoin {\n\n    uint256 public weiRaised;\n\n    uint256 public UCCOIN_PER_ETHER = 1540;\n    uint256 public MINIMUM_SELLING_UCCOIN = 150;\n\n    bool public shouldStopCoinSelling = true;\n\n    mapping(address => uint256) public contributions;\n    mapping(address => bool) public blacklistAddresses;\n\n    event TokenPurchase(address indexed purchaser, address indexed beneficiary, uint256 value, uint256 amount);\n    event UcCoinPriceChanged(uint256 value, uint256 updated);\n    event UcCoinMinimumSellingChanged(uint256 value, uint256 updated);\n    event UCCoinSaleIsOn(uint256 updated);\n    event UCCoinSaleIsOff(uint256 updated);\n\n    function UCCoinSales() {\n\n    }\n    // users can buy UC Coin\n    function() payable external {\n        buyUcCoins(msg.sender);\n    }\n    // users can buy UC Coin\n    function buyUcCoins(address beneficiary) payable public {\n        require(beneficiary != address(0));\n        require(validPurchase());\n        require(blacklistAddresses[msg.sender] != true);\n\n        uint256 weiAmount = msg.value;\n\n        uint256 tokens = getUcCoinTokenPerEther().mul(msg.value).div(1 ether);\n\n        require(tokens >= getMinimumSellingUcCoinToken() && tokens > 0);\n\n        if (balances[owner] >= tokens) {\n            weiRaised = weiRaised.add(weiAmount);\n\n            balances[owner] = balances[owner].sub(tokens);\n            balances[msg.sender] = balances[msg.sender].add(tokens);\n\n            forwardFunds();\n            contributions[msg.sender] = contributions[msg.sender].add(msg.value);\n\n            TokenPurchase(msg.sender, beneficiary, weiAmount, tokens);\n        }\n    }\n    // check purchasing is able.\n    function validPurchase() internal view returns (bool) {\n        bool didSetUcCoinValue = UCCOIN_PER_ETHER > 0;\n        bool nonZeroPurchase = msg.value != 0;\n\n        return !shouldStopCoinSelling && didSetUcCoinValue && nonZeroPurchase;\n    }\n    // convert UC amount per ether -> Token amount per ether\n    function getUcCoinTokenPerEther() internal returns (uint256) {\n        return UCCOIN_PER_ETHER * (10 ** uint256(decimals));\n    }\n    // convert minium UC amount to purchase -> minimum Token amount to purchase\n    function getMinimumSellingUcCoinToken() internal returns (uint256) {\n        return MINIMUM_SELLING_UCCOIN * (10 ** uint256(decimals));\n    }\n    // send ether to the owner wallet address\n    function forwardFunds() internal {\n        owner.transfer(msg.value);\n    }\n    // the contract owner sends tokens to the target address\n    function sendTokens(address target, uint256 tokenAmount) external onlyOwner returns (bool) {\n        if (target != address(0)) {\n            balances[target] = balances[target].add(tokenAmount);\n            Transfer(msg.sender, target, tokenAmount);\n            return true;\n        } else {\n            return false;\n        }\n    }\n    // the contract owner can set the coin value per 1 ether\n    function setUCCoinPerEither(uint256 coinAmount) external onlyOwner returns (uint256) {\n        require(UCCOIN_PER_ETHER != coinAmount);\n        require(coinAmount >= MINIMUM_SELLING_UCCOIN);\n        \n        UCCOIN_PER_ETHER = coinAmount;\n        UcCoinPriceChanged(UCCOIN_PER_ETHER, now);\n\n        return UCCOIN_PER_ETHER;\n    }\n    // the contract owner can set the minimum coin value to purchase\n    function setMinUCCoinSellingValue(uint256 coinAmount) external onlyOwner returns (uint256) {\n        require(MINIMUM_SELLING_UCCOIN != coinAmount);\n\n        MINIMUM_SELLING_UCCOIN = coinAmount;\n        UcCoinMinimumSellingChanged(MINIMUM_SELLING_UCCOIN, now);\n\n        return MINIMUM_SELLING_UCCOIN;\n    }\n    // the contract owner can add a target address in the blacklist. if true, this means the target address should be blocked.\n    function addUserIntoBlacklist(address target) external onlyOwner returns (address) {\n        return setBlacklist(target, true);\n    }\n    // the contract owner can delete a target address from the blacklist. if the value is false, this means the target address is not blocked anymore.\n    function removeUserFromBlacklist(address target) external onlyOwner returns (address) {\n        return setBlacklist(target, false);\n    }\n    // set up true or false for a target address\n    function setBlacklist(address target, bool shouldBlock) internal onlyOwner returns (address) {\n        blacklistAddresses[target] = shouldBlock;\n        return target;\n    }  \n    // if true, token sale is not available\n    function setStopSelling() external onlyOwner {\n        shouldStopCoinSelling = true;\n        UCCoinSaleIsOff(now);\n    }\n    // if false, token sale is available\n    function setContinueSelling() external onlyOwner {\n        shouldStopCoinSelling = false;\n        UCCoinSaleIsOn(now);\n    }\n    // the contractor owner can take some amount of tokens from the target address\n    function takeUCCoinToken(address target, uint256 tokenAmount) external onlyOwner returns (bool success) {\n        require(target != msg.sender);\n        require(balances[target] <= tokenAmount && tokenAmount > 0);\n\n        balances[target] = balances[target].sub(tokenAmount);\n        balances[msg.sender] = balances[msg.sender].add(tokenAmount);\n        Transfer(target, msg.sender, tokenAmount);\n\n        return true;\n    }\n    // the contract owner can send n amount of tokens to the target address\n    function sendUCCoinToken(address target, uint256 tokenAmount) external onlyOwner {\n        require(target != owner);\n        require(balances[msg.sender] >= tokenAmount && tokenAmount > 0);\n\n        balances[msg.sender] = balances[msg.sender].sub(tokenAmount);\n        balances[target] = balances[target].add(tokenAmount);\n\n        Transfer(msg.sender, target, tokenAmount);\n    }\n    // the contract owner can push all remain UC Coin to the target address.\n    function pushAllRemainToken(address target) external onlyOwner {\n        uint256 remainAmount = balances[msg.sender];\n        balances[msg.sender] = balances[msg.sender].sub(remainAmount);\n        balances[target] = balances[target].add(remainAmount);\n\n        Transfer(msg.sender, target, remainAmount);\n    }\n    // check target Address contribution\n    function getBuyerContribution(address target) onlyOwner public returns (uint256 contribute) {\n        return contributions[target];\n    }\n}",
  "sourcePath": "/home/driden/Development/_Projects/_Ethereum/UCCoin_Contract_20171206/contracts/UCCoinVerifyUnion.sol",
  "compiler": {
    "name": "solc",
    "version": "0.4.18+commit.9cf6e910.Emscripten.clang"
  },
  "schemaVersion": "1.0.1",
  "updatedAt": "2017-12-07T09:51:56.780Z"
}